{
  "_format": "hh-sol-artifact-1",
  "contractName": "Campaign",
  "sourceName": "contracts/Campaign.sol",
  "abi": [
    {
      "inputs": [
        {
          "internalType": "string",
          "name": "campaignTitle",
          "type": "string"
        },
        {
          "internalType": "uint256",
          "name": "requiredCampaignAmount",
          "type": "uint256"
        },
        {
          "internalType": "string",
          "name": "imgURI",
          "type": "string"
        },
        {
          "internalType": "string",
          "name": "storyURI",
          "type": "string"
        }
      ],
      "stateMutability": "nonpayable",
      "type": "constructor"
    },
    {
      "anonymous": false,
      "inputs": [
        {
          "indexed": false,
          "internalType": "address",
          "name": "to",
          "type": "address"
        },
        {
          "indexed": false,
          "internalType": "uint256",
          "name": "amount",
          "type": "uint256"
        },
        {
          "indexed": false,
          "internalType": "uint256",
          "name": "time",
          "type": "uint256"
        }
      ],
      "name": "donated",
      "type": "event"
    },
    {
      "inputs": [],
      "name": "donate",
      "outputs": [],
      "stateMutability": "payable",
      "type": "function"
    },
    {
      "inputs": [],
      "name": "image",
      "outputs": [
        {
          "internalType": "string",
          "name": "",
          "type": "string"
        }
      ],
      "stateMutability": "view",
      "type": "function"
    },
    {
      "inputs": [],
      "name": "owner",
      "outputs": [
        {
          "internalType": "address payable",
          "name": "",
          "type": "address"
        }
      ],
      "stateMutability": "view",
      "type": "function"
    },
    {
      "inputs": [],
      "name": "receivedAmount",
      "outputs": [
        {
          "internalType": "uint256",
          "name": "",
          "type": "uint256"
        }
      ],
      "stateMutability": "view",
      "type": "function"
    },
    {
      "inputs": [],
      "name": "requiredAmount",
      "outputs": [
        {
          "internalType": "uint256",
          "name": "",
          "type": "uint256"
        }
      ],
      "stateMutability": "view",
      "type": "function"
    },
    {
      "inputs": [],
      "name": "story",
      "outputs": [
        {
          "internalType": "string",
          "name": "",
          "type": "string"
        }
      ],
      "stateMutability": "view",
      "type": "function"
    },
    {
      "inputs": [],
      "name": "title",
      "outputs": [
        {
          "internalType": "string",
          "name": "",
          "type": "string"
        }
      ],
      "stateMutability": "view",
      "type": "function"
    }
  ],
  "bytecode": "0x60806040523480156200001157600080fd5b5060405162000df538038062000df583398181016040528101906200003791906200028d565b83600090816200004891906200059d565b508260018190555081600290816200006191906200059d565b5033600460006101000a81548173ffffffffffffffffffffffffffffffffffffffff021916908373ffffffffffffffffffffffffffffffffffffffff1602179055508060039081620000b491906200059d565b505050505062000684565b6000604051905090565b600080fd5b600080fd5b600080fd5b600080fd5b6000601f19601f8301169050919050565b7f4e487b7100000000000000000000000000000000000000000000000000000000600052604160045260246000fd5b6200012882620000dd565b810181811067ffffffffffffffff821117156200014a5762000149620000ee565b5b80604052505050565b60006200015f620000bf565b90506200016d82826200011d565b919050565b600067ffffffffffffffff82111562000190576200018f620000ee565b5b6200019b82620000dd565b9050602081019050919050565b60005b83811015620001c8578082015181840152602081019050620001ab565b60008484015250505050565b6000620001eb620001e58462000172565b62000153565b9050828152602081018484840111156200020a5762000209620000d8565b5b62000217848285620001a8565b509392505050565b600082601f830112620002375762000236620000d3565b5b815162000249848260208601620001d4565b91505092915050565b6000819050919050565b620002678162000252565b81146200027357600080fd5b50565b60008151905062000287816200025c565b92915050565b60008060008060808587031215620002aa57620002a9620000c9565b5b600085015167ffffffffffffffff811115620002cb57620002ca620000ce565b5b620002d9878288016200021f565b9450506020620002ec8782880162000276565b935050604085015167ffffffffffffffff81111562000310576200030f620000ce565b5b6200031e878288016200021f565b925050606085015167ffffffffffffffff811115620003425762000341620000ce565b5b62000350878288016200021f565b91505092959194509250565b600081519050919050565b7f4e487b7100000000000000000000000000000000000000000000000000000000600052602260045260246000fd5b60006002820490506001821680620003af57607f821691505b602082108103620003c557620003c462000367565b5b50919050565b60008190508160005260206000209050919050565b60006020601f8301049050919050565b600082821b905092915050565b6000600883026200042f7fffffffffffffffffffffffffffffffffffffffffffffffffffffffffffffffff82620003f0565b6200043b8683620003f0565b95508019841693508086168417925050509392505050565b6000819050919050565b60006200047e62000478620004728462000252565b62000453565b62000252565b9050919050565b6000819050919050565b6200049a836200045d565b620004b2620004a98262000485565b848454620003fd565b825550505050565b600090565b620004c9620004ba565b620004d68184846200048f565b505050565b5b81811015620004fe57620004f2600082620004bf565b600181019050620004dc565b5050565b601f8211156200054d576200051781620003cb565b6200052284620003e0565b8101602085101562000532578190505b6200054a6200054185620003e0565b830182620004db565b50505b505050565b600082821c905092915050565b6000620005726000198460080262000552565b1980831691505092915050565b60006200058d83836200055f565b9150826002028217905092915050565b620005a8826200035c565b67ffffffffffffffff811115620005c457620005c3620000ee565b5b620005d0825462000396565b620005dd82828562000502565b600060209050601f83116001811462000615576000841562000600578287015190505b6200060c85826200057f565b8655506200067c565b601f1984166200062586620003cb565b60005b828110156200064f5784890151825560018201915060208501945060208101905062000628565b868310156200066f57848901516200066b601f8916826200055f565b8355505b6001600288020188555050505b505050505050565b61076180620006946000396000f3fe6080604052600436106100705760003560e01c80638da5cb5b1161004e5780638da5cb5b146100f65780639632e72014610121578063ed88c68e1461014c578063f3ccaac01461015657610070565b806346c922d11461007557806348b9ef40146100a05780634a79d50c146100cb575b600080fd5b34801561008157600080fd5b5061008a610181565b60405161009791906104f2565b60405180910390f35b3480156100ac57600080fd5b506100b561020f565b6040516100c2919061052d565b60405180910390f35b3480156100d757600080fd5b506100e0610215565b6040516100ed91906104f2565b60405180910390f35b34801561010257600080fd5b5061010b6102a3565b6040516101189190610589565b60405180910390f35b34801561012d57600080fd5b506101366102c9565b604051610143919061052d565b60405180910390f35b6101546102cf565b005b34801561016257600080fd5b5061016b6103d4565b60405161017891906104f2565b60405180910390f35b6003805461018e906105d3565b80601f01602080910402602001604051908101604052809291908181526020018280546101ba906105d3565b80156102075780601f106101dc57610100808354040283529160200191610207565b820191906000526020600020905b8154815290600101906020018083116101ea57829003601f168201915b505050505081565b60015481565b60008054610222906105d3565b80601f016020809104026020016040519081016040528092919081815260200182805461024e906105d3565b801561029b5780601f106102705761010080835404028352916020019161029b565b820191906000526020600020905b81548152906001019060200180831161027e57829003601f168201915b505050505081565b600460009054906101000a900473ffffffffffffffffffffffffffffffffffffffff1681565b60055481565b60055460015411610315576040517f08c379a000000000000000000000000000000000000000000000000000000000815260040161030c90610650565b60405180910390fd5b600460009054906101000a900473ffffffffffffffffffffffffffffffffffffffff1673ffffffffffffffffffffffffffffffffffffffff166108fc349081150290604051600060405180830381858888f1935050505015801561037d573d6000803e3d6000fd5b503460056000828254610390919061069f565b925050819055507fe6add99d06d9ad7fc456e746aa162eed6211c5002ef2dacdd67b8d2016822fba3334426040516103ca939291906106f4565b60405180910390a1565b600280546103e1906105d3565b80601f016020809104026020016040519081016040528092919081815260200182805461040d906105d3565b801561045a5780601f1061042f5761010080835404028352916020019161045a565b820191906000526020600020905b81548152906001019060200180831161043d57829003601f168201915b505050505081565b600081519050919050565b600082825260208201905092915050565b60005b8381101561049c578082015181840152602081019050610481565b60008484015250505050565b6000601f19601f8301169050919050565b60006104c482610462565b6104ce818561046d565b93506104de81856020860161047e565b6104e7816104a8565b840191505092915050565b6000602082019050818103600083015261050c81846104b9565b905092915050565b6000819050919050565b61052781610514565b82525050565b6000602082019050610542600083018461051e565b92915050565b600073ffffffffffffffffffffffffffffffffffffffff82169050919050565b600061057382610548565b9050919050565b61058381610568565b82525050565b600060208201905061059e600083018461057a565b92915050565b7f4e487b7100000000000000000000000000000000000000000000000000000000600052602260045260246000fd5b600060028204905060018216806105eb57607f821691505b6020821081036105fe576105fd6105a4565b5b50919050565b7f20726571756972656420616d6f756e742066756c6c66696c6c65642000000000600082015250565b600061063a601c8361046d565b915061064582610604565b602082019050919050565b600060208201905081810360008301526106698161062d565b9050919050565b7f4e487b7100000000000000000000000000000000000000000000000000000000600052601160045260246000fd5b60006106aa82610514565b91506106b583610514565b92508282019050808211156106cd576106cc610670565b5b92915050565b60006106de82610548565b9050919050565b6106ee816106d3565b82525050565b600060608201905061070960008301866106e5565b610716602083018561051e565b610723604083018461051e565b94935050505056fea26469706673582212203b8a4a4e2455fc72bfd99c73a0281af16e233006eef142be6ac79c9607e893ad64736f6c63430008110033",
  "linkReferences": {},
  "deployedLinkReferences": {}
}